:020000040800F2
:10000000000002207915000899140008A1140008C6
:10001000A9140008B1140008B91400080000000079
:10002000000000000000000000000000C1140008F3
:10003000CF14000800000000DD140008EB140008D5
:10004000C9150008C9150008C9150008C915000818
:10005000C9150008C9150008F7140008C9150008DB
:10006000C9150008C9150008C9150008C9150008F8
:10007000C9150008C9150008C9150008C9150008E8
:10008000C9150008C915000805150008C91500089C
:10009000C9150008C9150008C9150008C9150008C8
:1000A000C9150008C915000819150008C915000868
:1000B000C9150008C9150008C9150008C9150008A8
:1000C000C9150008C9150008C9150008C915000898
:1000D000C9150008C9150008C9150008C915000888
:1000E000C9150008C9150008C9150008C915000878
:1000F000C9150008C9150008C9150008C915000868
:10010000C9150008C9150008C9150008C915000857
:10011000C9150008C9150008C9150008C915000847
:10012000C91500082D150008C9150008C9150008D3
:1001300041150008C9150008C9150008C9150008AF
:10014000C9150008C9150008C9150008C915000817
:10015000C9150008C9150008C9150008C915000807
:10016000C9150008C9150008C9150008C9150008F7
:10017000C9150008C9150008C915000800000000CD
:08018000C9150008C9150008AB
:1001880010B5054C237833B9044B13B10448AFF3C9
:1001980000800123237010BD100000200000000023
:1001A8000852000808B5034B1BB103490348AFF3D5
:1001B800008008BD0000000014000020085200085C
:1001C80053B94AB9002908BF00281CBF4FF0FF31B6
:1001D8004FF0FF3000F088B9ADF1080C6DE904CE9E
:1001E80000F006F8DDF804E0DDE9022304B070470A
:1001F8002DE9F047089D8E4604468846002B4AD1D3
:100208008A42174662D9B2FA82F64EB1C6F1200385
:1002180001FA06F820FA03F3B74043EA0808B440A5
:100228004FEA174E1FFA87FCB8FBFEF1230C0EFBB2
:10023800118843EA084301FB0CF29A4209D9FB18DA
:1002480001F1FF3080F0EA809A4240F2E7800239FB
:100258003B449A1AA3B2B2FBFEF00EFB102243EA0B
:10026800024300FB0CFC9C4509D9FB1800F1FF3246
:1002780080F0D6809C4540F2D3803B44023840EA67
:100288000140A3EB0C0300211DB1F3400022C5E996
:100298000032BDE8F0878B4205D90DB1C5E90001F0
:1002A80000210846F5E7B3FA83F1002946D17345E2
:1002B80002D3824200F20581841A6EEB0302012008
:1002C8009046002DE5D0C5E90048E2E7002A00F095
:1002D8009080B2FA82F6002E40F0A4808A1A030CAD
:1002E8004FEA174E80B2BCB20121B2FBFEFC0EFBF6
:1002F8001C2243EA024304FB0CF29A4207D9FB187A
:100308000CF1FF3802D29A4200F2E080C4469B1AF0
:10031800B3FBFEF20EFB123340EA034302FB04F484
:100328009C4207D9FB1802F1FF3002D29C4200F22E
:10033800CA8002461B1B42EA0C40A5E7C1F1200611
:100348008B4022FA06F71F430EFA01F420FA06F34F
:100358002EFA06FE4FEA1749234300FA01F81FFA5E
:1003680087FCBEFBF9F01C0C09FB10EE44EA0E44B6
:1003780000FB0CFEA64502FA01F209D93C1900F16E
:10038800FF3A80F09C80A64540F2998002383C44B0
:10039800A4EB0E041FFA83FEB4FBF9F309FB134424
:1003A8004EEA044403FB0CFCA44508D93C1903F1AC
:1003B800FF3E80F08280A4457FD9023B3C4443EA5B
:1003C8000040A4EB0C04A0FB02EC64457346E14634
:1003D80062D35FD05DB1B8EB030264EB090404FAA1
:1003E80006F622FA01F31E43CC40C5E90064002159
:1003F8004FE7B1FBF2FC010C41EA0E4180B240EA42
:1004080001423B4638463C46B846BE462026B1FB2C
:10041800F7F1A2EB080241EA0C4166E7014618E74A
:1004280010462CE7C6F120022EFA02F3B740B1407D
:1004380020FA02F24FEA174E0A43B3FBFEF8BCB2A9
:100448000EFB1833110C41EA034108FB04F9B040D4
:1004580089454FEA104380B23ED9791808F1FF3C2C
:1004680001D289451FD8A1EB0901B1FBFEF909FBAF
:1004780004F80EFB191192B242EA0142424529D210
:10048800BA1809F1FF31C4D24245C2D2A9F102011A
:100498003A44BEE7F0459DD2BEEB02036CEB070C75
:1004A8000138E14696E7A7EB09094944A8F1020C8F
:1004B800B1FBFEF909FB04F8DBE773467FE750461A
:1004C80066E70846FDE63B44023A33E7ACF1020C26
:1004D8003B441CE749469CE7A1EB0901C446B1FB34
:1004E800FEF909FB04F8C4E7704700BF80B58EB079
:1004F80000AF78600B467B80FA23BB8540F6A66385
:100508007B8501237B6205233B6201F0C1F8F8611A
:10051800464B1B68FA699A4200F08480434AFB699B
:10052800136040F6FF73FB860023BB8600233B6302
:1005380020E03B6B5B007A6813441B889BB2FA8E01
:100548009A4205D93B6B5B007A6813441B88FB868B
:100558003B6B5B007A6813441B889BB2BA8E9A4245
:1005680005D23B6B5B007A6813441B88BB863B6BE8
:1005780001333B637B883A6B9A42DADBBA8EFB8E97
:10058800D31A7B837A8BBB8D9A4203D8002387F8D2
:100598002F3018E07A8B7B8D9A4203D3FF2387F89C
:1005A8002F3010E07A8BBB8DD31A7B617A8DBB8D8F
:1005B800D31A3B617A6913461B029A1A3B69B2FB4C
:1005C800F3F387F82F3097F82F20194B1B68D31AAD
:1005D800FB6097F82F30164A13607B6A013B154A77
:1005E800126803FB02F297F82F301A447B6A92FBD9
:1005F800F3F3104A13603B6A013B0F4A126803FB8E
:1006080002F2FB681A443B6A92FBF3F30A4A13604E
:10061800084B1B68094A1360074B1B689AB2084BC2
:100628001A8000E000BF3837BD4680BD4830002042
:100638004C3000205030002054300020302E002054
:100648003C30002080B582B000AF78607B681B68C2
:10065800054A934203D180210448FFF747FF00BFB2
:100668000837BD4680BD00BF002001403C2F002058
:1006780080B582B000AF78607B681B68054A9342FA
:1006880003D180210448FFF731FF00BF0837BD467A
:1006980080BD00BF002001403C2E002080B483B004
:1006A80000AF0346FB71FB79DB43FB71FB79542BED
:1006B8000CD8FB791A469B00D31AFF331904FA7930
:1006C80013465B0013441B020B431FE0FB79A92B65
:1006D8000ED8FB79553BFB71FB791A469B00D31A60
:1006E800FF331902FA7913465B0013440B430DE0FC
:1006F800FB795633FB71FA7913465B0013441A04ED
:10070800FB7919469B00CB1AFF33134318460C3765
:10071800BD465DF8047B704780B584B000AF002308
:10072800FB6024E0FB681B02174A82FB03121A4491
:10073800D211DB17D31ADAB2144B1B88DBB213447D
:10074800FB72FB7A1846FFF7A9FF78607B681B0CE1
:10075800FB707B681B0ABB707B687B70F978BA7882
:100768007B78F86800F0ECF9FB680133FB60FB6804
:10077800DC2BD7DD054B1B8801339AB2034B1A805B
:1007880000BF1037BD4680BD958045945830002085
:1007980080B58AB000AF00F07DFA4A4B1B683B6217
:1007A8003B6ADD2202FB03F3474AA2FB03231B0A31
:1007B800FB61464B1B68FA699A4208DD434AFB69AC
:1007C800136000F065FF0346414A13601DE000F026
:1007D8005FFFB8613E4B1B68BA69D31A0322934284
:1007E80013D33B4ABB691360384B1B68002B0CDDE5
:1007F800364B1B6801229B1A344A1360334B1B6823
:10080800002B02DA314B00221A6000F041FF7861B8
:10081800304B1B687A69D31A322B08D92E4B1B88A8
:1008280001339AB22C4B1A802A4A7B691360274BF2
:100838001B68002B42DD00237B623AE07A6A13468C
:100848001B029B1A9B00254A82FB03121A441212B0
:10085800DB17D31AFB74204B1B88DAB2FB7C1344DA
:10086800DBB21846FFF71AFFF860FB681B0CFB7237
:10087800FB681B0ABB72FB687B727B6AC3F16D0362
:100888007B607B6A6E333B607B68002B05DBF97A03
:10089800BA7A7B7A786800F053F93B68DC2B05DC80
:1008A800F97ABA7A7B7A386800F04AF97B6A0133B8
:1008B8007B62064B1B687A6A9A42BFDB00BF283707
:1008C800BD4680BD302E00208180808040300020D1
:1008D800443000205C300020603000209580459432
:1008E80080B586B000AF00F0D3FEB8603E4B1B6801
:1008F800BA68D31A092B73D93B4ABB681360002323
:100908007B615EE000233B610023FB60374B1B6883
:100918007A699A4205DC354B1A687B69D31A3B61C0
:1009280006E07B69C3F1DD02304B1B6813443B6171
:100938003B691D2B01DC0123FB60FB68002B24D0E5
:100948003B69C3F11E0213461B029B1A284A82FB0D
:1009580003121A441211DB17D31AFB700023BB7061
:10096800FB787B70FB78C82202FB03F3214A82FBE9
:1009780003121A44D211DB17D31A3B707978BA786C
:100988003B78786900F0DCF818E0184B1B68BF3337
:10099800194A82FB03121A44D111DA178A1ADD2187
:1009A80001FB02F29B1A7B607A697B689A4205D147
:1009B800002300220021786900F0C2F87B69013326
:1009C8007B617B69DC2B9DDD084B1B680133074A83
:1009D8001360064B1B68DC2B02DD044B00221A60F7
:1009E80000BF1837BD4680BD643000206830002045
:1009F80089888888818080809580459480B500AFFB
:100A080000F048F900BF80BD80B584B000AF00F0A9
:100A18003FFEB860224B1B68BA68D31A632B30D9E3
:100A28001F4ABB6813601F4B1B78002B0CBF0123A8
:100A38000023DBB21A461B4B1A701A4B1B78002B8B
:100A48001DD0194B1B781846FFF728FE78607B6885
:100A58001B0CFB707B681B0ABB707B687B700023D8
:100A6800FB6008E0F978BA787B78F86800F068F8F5
:100A7800FB680133FB60FB68DC2BF3DD01E000F071
:100A880009F9094B1B7801335A42DBB2D2B258BF7D
:100A98005342DAB2044B1A7000BF1037BD4680BD0E
:100AA8006C300020703000207130002080B584B098
:100AB80000AF0346FB80FB88012B1CD100F0E8FD4A
:100AC800F8600F4B1B68FA68D31A642B13D90C4AC9
:100AD800FB6813600B4B1B6801330A4A1360094B10
:100AE8001B68042B02DD074B00221A6000F0D2F8C5
:100AF800054B01221A6000BF1037BD4680BD00BFFC
:100B0800382E0020342E00200000002080B582B04E
:100B180000AF78607B681B68064A934206D10021C3
:100B2800054803F027F8054B01221A6000BF083773
:100B3800BD4680BD00000140D40000200000002018
:100B480080B485B000AFF860B9607A603B60FB683C
:100B5800DC2B1FDCBB68D8B21149FA6813465B006E
:100B680013440B4402461A707B68D8B20C49FA68E1
:100B780013465B0013440B44013302461A703B686A
:100B8800D8B20749FA6813465B0013440B44023392
:100B980002461A7000BF1437BD465DF8047B7047E3
:100BA800C401002080B586B000AF364B1B68002B0F
:100BB80063D0344B00221A6000237B6000237B61E2
:100BC80000233B613DE030493A6913465B0013441A
:100BD8000B441B7819042C483A6913465B001344EC
:100BE800034401331B781B02194327483A6913460B
:100BF8005B001344034402331B780B437B601723C9
:100C0800FB6018E07A68FB6822FA03F303F001033B
:100C1800002B05D01D4A7B693C2122F8131004E003
:100C28001A4A7B691E2122F813107B6901337B6104
:100C3800FB68013BFB60FB68002BE3DA3B6901338F
:100C48003B613B69DC2BBEDD0023BB600AE00F4A39
:100C58007B69002122F813107B6901337B61BB6833
:100C68000133BB60BB68312BF1DD7B699BB2074A5E
:100C78000021074802F0B6FD00E000BF1837BD4666
:100C880080BD00BF00000020C40100205C040020DB
:100C9800D400002080B582B000AF00237B6008E05C
:100CA8000023002200217868FFF74AFF7B680133A0
:100CB8007B607B68DC2BF3DD00BF00BF0837BD46D7
:100CC80080BD000080B500AF00F07CFC00F054F857
:100CD80000F000FA00F0D6F900F00AF900F0B6F8D2
:100CE80000F0A6F94FF480722049214800F054FE24
:100CF800FFF7D0FF1F4B1B68042B30D801A252F816
:100D080023F000BF210D0008310D0008410D000837
:100D1800510D0008610D0008FFF7FEFCFFF742FFC8
:100D2800642000F0C1FC20E0FFF7DAFDFFF73AFF8E
:100D3800012000F0B9FC18E0FFF766FEFFF732FF6C
:100D4800012000F0B1FC10E0FFF722FDFFF72AFFB9
:100D5800012000F0A9FC08E0FFF750FE05E0FFF7CE
:100D680099FF044B00221A6000BFC3E73C2E002005
:100D78002C000020342E002080B594B000AF07F17D
:100D8800200330220021184604F00EFA07F10C0364
:100D980000221A605A609A60DA601A610023BB6008
:100DA800284B1B6C274A43F080531364254B1B6C5C
:100DB80003F08053BB60BB6800237B60224B1B6839
:100DC800214A43F4804313601F4B1B6803F480439C
:100DD8007B607B6802233B620123FB6210233B6339
:100DE8000223BB630023FB6310233B644FF490731F
:100DF8007B640423BB640423FB6407F120031846C7
:100E080001F0F0FF0346002B01D000F0B5F90F23E5
:100E1800FB6002233B6100237B614FF48053BB617D
:100E28000023FB6107F10C030221184602F052FA75
:100E38000346002B01D000F09FF900BF5037BD4694
:100E480080BD00BF003802400070004080B584B00B
:100E580000AF3B4600221A605A609A60DA60214B64
:100E6800214A1A601F4B00225A601E4B00229A60CA
:100E78001C4B00221A611B4B01221A76194B0022C7
:100E880083F82020174B0022DA62164B174A9A6221
:100E9800144B0022DA60134B0122DA61114B012254
:100EA80083F830200F4B01225A610E4800F020FCD5
:100EB8000346002B01D000F05FF901233B600123BA
:100EC8007B600023BB603B461946064800F088FE5D
:100ED8000346002B01D000F04FF900BF1037BD4684
:100EE80080BD00BF2C000020002001400100000F41
:100EF80080B596B000AF07F1480300221A605A6027
:100F08009A60DA6007F1400300221A605A6007F11C
:100F1800240300221A605A609A60DA601A615A61E2
:100F28009A613B1D20220021184604F03DF93E4BF2
:100F38003E4A1A603C4B00225A603B4B00229A60A2
:100F4800394B5922DA60384B00221A61364B00229D
:100F58005A61354B00229A61334802F09BFB0346E5
:100F6800002B01D000F008F94FF48053BB6407F15F
:100F7800480319462C4803F081F80346002B01D09A
:100F880000F0FAF8284802F0D4FB0346002B01D001
:100F980000F0F2F800233B6400237B6407F1400370
:100FA8001946214803F05AFD0346002B01D000F0F2
:100FB800E3F860237B620023BB620023FB6200230B
:100FC8003B6300237B630023BB630023FB6307F1C0
:100FD800240300221946144802F08EFF0346002B12
:100FE80001D000F0C9F800237B600023BB60002318
:100FF800FB6000233B6100237B614FF40053BB611E
:1010080000233B623B1D1946074803F0A3FD034636
:10101800002B01D000F0B0F8034800F0B7F900BF8A
:101028005837BD4680BD00BFD400002000000140F5
:1010380080B500AF114B124A1A60104B4FF4E132E1
:101048005A600E4B00229A600C4B0022DA600B4B60
:1010580000221A61094B0C225A61084B00229A613E
:10106800064B0022DA61054803F0DAFD0346002B3F
:1010780001D000F081F800BF80BD00BF7C010020D6
:10108800004C004080B582B000AF00237B60104B5D
:101098001B6B0F4A43F4800313630D4B1B6B03F464
:1010A80080037B607B6800220021392001F01DF954
:1010B800392001F036F9002201213C2001F015F910
:1010C8003C2001F02EF900BF0837BD4680BD00BFA7
:1010D8000038024080B588B000AF07F10C03002249
:1010E8001A605A609A60DA601A610023BB60204B6C
:1010F8001B6B1F4A43F0010313631D4B1B6B03F06B
:101108000103BB60BB6800237B60194B1B6B184A4B
:1011180043F010031363164B1B6B03F010037B6043
:101128007B6800233B60124B1B6B114A43F004039E
:1011380013630F4B1B6B03F004033B603B680123F5
:10114800FB604FF488133B6102237B6107F10C03BA
:101158001946084801F092FC00220021062001F0FF
:10116800C4F8062001F0DDF800BF2037BD4680BD79
:10117800003802400000024080B400AF72B600BFE1
:1011880000BFFDE780B483B000AF00237B60104B45
:101198005B6C0F4A43F4804353640D4B5B6C03F460
:1011A80080437B607B6800233B60094B1B6C084ACB
:1011B80043F080531364064B1B6C03F080533B6071
:1011C8003B6800BF0C37BD465DF8047B704700BF25
:1011D8000038024080B58AB000AF786007F1140388
:1011E80000221A605A609A60DA601A617B681B688C
:1011F800334A93425FD100233B61324B5B6C314AE7
:1012080043F4807353642F4B5B6C03F480733B612E
:101218003B690023FB602B4B1B6B2A4A43F00103FD
:101228001363284B1B6B03F00103FB60FB6802236D
:101238007B610323BB610023FB6107F1140319469B
:10124800214801F01BFC214B214A1A601F4B002248
:101258005A601E4B00229A601C4B0022DA601B4B1E
:101268004FF480621A61194B4FF400625A61174BB0
:101278004FF400529A61154B4FF48072DA61134BA8
:1012880000221A62114B00225A62104801F064F8D9
:101298000346002B01D0FFF76FFF7B680B4A9A6368
:1012A8000A4A7B68936300220021122001F01DF88E
:1012B800122001F036F800BF2837BD4680BD00BFB8
:1012C8000020014000380240000002407400002065
:1012D8007064024080B584B000AF78607B681B689A
:1012E800264A934245D10023FB60254B5B6C244A78
:1012F80043F001035364224B5B6C03F00103FB6072
:10130800FB68204B204A1A601E4B4FF040625A601F
:101318001C4B40229A601B4B0022DA60194B4FF499
:1013280080621A61174B4FF400625A61154B4FF4F3
:1013380000529A61134B0022DA61124B00221A62A2
:10134800104B00225A620F4801F006F80346002BA2
:1013580001D0FFF711FF7B680A4A5A62094A7B6885
:101368009363002200211A2000F0BFFF1A2000F02A
:10137800D8FF00BF1037BD4680BD00BF0000014048
:10138800003802401C0100202864024080B588B063
:1013980000AF786007F10C0300221A605A609A6067
:1013A800DA601A617B681B68124A93421ED10023D7
:1013B800BB60114B1B6B104A43F0100313630E4BB9
:1013C8001B6B03F01003BB60BB684FF40073FB603A
:1013D80002233B6100237B610023BB610123FB6186
:1013E80007F10C031946054801F048FB00BF2037F8
:1013F800BD4680BD00000140003802400010024098
:1014080080B58AB000AF786007F1140300221A6033
:101418005A609A60DA601A617B681B68194A9342BD
:101428002CD100233B61184B1B6C174A43F4002353
:101438001364154B1B6C03F400233B613B690023C9
:10144800FB60114B1B6B104A43F0040313630E4BF4
:101458001B6B03F00403FB60FB684FF440637B6184
:101468000223BB610023FB6103233B6208237B62E9
:1014780007F114031946054801F000FB00BF28379F
:10148800BD4680BD004C00400038024000080240C4
:1014980080B400AF00BFFDE780B400AF00BFFDE738
:1014A80080B400AF00BFFDE780B400AF00BFFDE728
:1014B80080B400AF00BFFDE780B400AF00BFBD46F9
:1014C8005DF8047B704780B400AF00BFBD465DF88F
:1014D800047B704780B400AF00BFBD465DF8047B55
:1014E800704780B500AF00F0BFF800BF80BD80B581
:1014F80000AF012001F05EFC00BF80BD80B500AFE9
:10150800024800F038F900BF80BD00BF2C00002061
:1015180080B500AF024802F0FFFB00BF80BD00BFEE
:10152800D400002080B500AF024801F03DF800BFAC
:1015380080BD00BF1C01002080B500AF024801F04B
:1015480033F800BF80BD00BF7400002080B400AF36
:10155800064BD3F88830054A43F47003C2F8883044
:1015680000BFBD465DF8047B704700BF00ED00E09A
:10157800DFF834D0FFF7EAFF0C480D490D4A002385
:1015880002E0D458C4500433C4188C42F9D30A4A30
:101598000A4C002301E013600432A242FBD303F09B
:1015A8000BFEFFF78FFB70470000022000000020B1
:1015B8001000002050520008100000207830002051
:1015C800FEE7000080B500AF0E4B1B680D4A43F4E0
:1015D800007313600B4B1B680A4A43F48063136063
:1015E800084B1B68074A43F480731360032000F01C
:1015F80071FE0F2000F008F8FFF7C4FD002318461D
:1016080080BD00BF003C024080B582B000AF78606A
:10161800124B1A68124B1B7819464FF47A73B3FBB6
:10162800F1F3B2FBF3F3184600F089FE0346002BF2
:1016380001D001230EE07B680F2B0AD800227968BD
:101648004FF0FF3000F051FE064A7B68136000231C
:1016580000E0012318460837BD4680BD040000207D
:101668000C0000200800002080B400AF064B1B7857
:101678001A46064B1B681344044A136000BFBD4654
:101688005DF8047B704700BF0C0000207430002018
:1016980080B400AF034B1B681846BD465DF8047B59
:1016A800704700BF7430002080B584B000AF786008
:1016B800FFF7EEFFB8607B68FB60FB68B3F1FF3FA4
:1016C80005D00A4B1B781A46FB681344FB6000BF21
:1016D800FFF7DEFF0246BB68D31AFA689A42F7D8CA
:1016E80000BF00BF1037BD4680BD00BF0C00002002
:1016F80080B584B000AF78600023FB737B68002B53
:1017080001D1012333E07B681B6C002B09D1786879
:10171800FFF760FD7B6800225A647B68002283F82B
:101728003C207B681B6C03F01003002B18D17B68EE
:101738001B6C23F4885323F0020343F002027B68F6
:101748001A64786800F06EFB7B6800225A647B6834
:101758001B6C23F0030343F001027B681A6401E069
:101768000123FB737B68002283F83C20FB7B18462F
:101778001037BD4680BD80B586B000AF78600023C5
:101788007B6100233B617B681B681B68FB607B688F
:101798001B685B68BB60FB6803F002037B61BB6886
:1017A80003F020033B617B69002B49D03B69002B88
:1017B80046D07B681B6C03F01003002B05D17B68B7
:1017C8001B6C43F400727B681A647B681B689B6817
:1017D80003F04053002B2BD17B681B7E002B27D1B5
:1017E8007B681B68DB6A03F47003002B06D07B68F8
:1017F8001B689B6803F48063002B19D17B681B6806
:101808005A687B681B6822F020025A607B681B6C50
:1018180023F480727B681A647B681B6C03F4805322
:10182800002B05D17B681B6C43F001027B681A64AE
:101838007868FEF707FF7B681B686FF012021A6072
:10184800FB6803F004037B61BB6803F080033B6122
:101858007B69002B57D03B69002B54D07B681B6CED
:1018680003F01003002B05D17B681B6C43F4005276
:101878007B681A647B681B689B6803F44013002B21
:1018880039D17B681B689B6B03F44013002B06D08F
:101898007B681B689B6803F48063002B2BD17B68F3
:1018A8001B685B6803F48063002B24D17B681B688A
:1018B8009B6803F04053002B1DD17B681B7E002BD7
:1018C80019D17B681B685A687B681B6822F0800204
:1018D8005A607B681B6C23F480527B681A647B68AF
:1018E8001B6C03F48073002B05D17B681B6C43F0E1
:1018F80001027B681A64786800F012FC7B681B6838
:101908006FF00C021A60FB6803F001037B61BB688F
:1019180003F040033B617B69002B17D03B69002B28
:1019280014D07B681B681B6803F00103012B0DD1E1
:101938007B681B6C43F480327B681A64786800F01B
:101948003BF97B681B686FF001021A60FB6803F0C3
:1019580020037B61BB6803F080633B617B69002BDC
:1019680015D03B69002B12D07B685B6C43F00202F8
:101978007B685A647B681B686FF020021A6078687D
:1019880000F024F97B681B686FF020021A6000BF22
:101998001837BD4680BD000080B586B000AFF8603E
:1019A800B9607A6000233B61FB6893F83C30012BF7
:1019B80001D10223E9E0FB68012283F83C20FB689F
:1019C8001B689B6803F00103012B18D0FB681B6898
:1019D8009A68FB681B6842F001029A606D4B1B68AD
:1019E8006D4AA2FB03239A0C13465B0013443B6128
:1019F80002E03B69013B3B613B69002BF9D1FB6885
:101A08001B689B6803F48073B3F5807F07D1FB687C
:101A18001B689A68FB681B6822F480729A60FB68EE
:101A28001B689B6803F00103012B40F0A180FB6851
:101A38001B6C23F4E06323F0010343F48072FB681A
:101A48001A64FB681B685B6803F48063002B07D08B
:101A5800FB681B6C23F4405343F48052FB681A6400
:101A6800FB681B6C03F48053B3F5805F06D1FB68F9
:101A78005B6C23F00602FB685A6402E0FB680022F4
:101A88005A64FB68002283F83C20444B7B61FB6866
:101A98009B6B434ADA63FB689B6B424A1A64FB6898
:101AA8009B6B414ADA64FB681B686FF022021A607C
:101AB800FB681B685A68FB681B6842F080625A60C2
:101AC800FB681B689A68FB681B6842F480729A601E
:101AD800FB68986BFB681B684C331946BA687B68CF
:101AE80000F0E8FC7B695B6803F01F03002B2AD138
:101AF800FB681B682D4A934215D0FB681B682C4A6B
:101B0800934205D1254B5B6803F01F03002B0AD0D5
:101B1800FB681B68274A934236D1204B5B6803F069
:101B28001003002B30D1FB681B689B6803F04053FF
:101B3800002B29D1FB681B689A68FB681B6842F078
:101B480080429A6020E0FB681B68184A93421BD1C8
:101B5800FB681B689B6803F04053002B14D1FB689B
:101B68001B689A68FB681B6842F080429A600BE029
:101B7800FB681B6C43F01002FB681A64FB685B6C23
:101B880043F00102FB685A64002318461837BD4623
:101B980080BD00BF0400002083DE1B4300230140FA
:101BA80025200008DF200008FB2000080020014055
:101BB800002101400022014080B483B000AF78606A
:101BC80000BF0C37BD465DF8047B704780B483B016
:101BD80000AF786000BF0C37BD465DF8047B7047E6
:101BE80080B485B000AF786039600023BB607B6843
:101BF80093F83C30012B01D1022305E17B680122D7
:101C080083F83C203B681B68092B25D97B681B6837
:101C1800D9683B681B689BB21A4613465B0013449D
:101C28001E3B072202FA03F3DA437B681B680A406B
:101C3800DA607B681B68D9683B689A683B681B68F0
:101C48009BB2184603465B0003441E3B9A407B68E0
:101C58001B680A43DA6022E07B681B6819693B68E5
:101C68001B689BB21A4613465B001344072202FA0C
:101C780003F3DA437B681B680A401A617B681B68B8
:101C880019693B689A683B681B689BB2184603460B
:101C98005B0003449A407B681B680A431A613B68EF
:101CA8005B68062B24D87B681B68596B3B685A68AD
:101CB80013469B001344053B1F2202FA03F3DA4341
:101CC8007B681B680A405A637B681B68596B3B68D2
:101CD8001B689BB218463B685A6813469B0013441E
:101CE800053B00FA03F27B681B680A435A634CE021
:101CF8003B685B680C2B24D87B681B68196B3B68B6
:101D08005A6813469B001344233B1F2202FA03F32D
:101D1800DA437B681B680A401A637B681B68196B87
:101D28003B681B689BB218463B685A6813469B0081
:101D38001344233B00FA03F27B681B680A431A63C7
:101D480023E07B681B68D96A3B685A6813469B0086
:101D58001344413B1F2202FA03F3DA437B681B68F2
:101D68000A40DA627B681B68D96A3B681B689BB2C9
:101D780018463B685A6813469B001344413B00FAD7
:101D880003F27B681B680A43DA62224BFB607B68BC
:101D98001B68214A934209D13B681B68122B05D165
:101DA800FB685B6843F48002FB685A607B681B68C9
:101DB800194A934223D13B681B68102B03D03B6818
:101DC8001B68112B1BD1FB685B6843F40002FB689E
:101DD8005A603B681B68102B11D1104B1B68104AC6
:101DE800A2FB03239A0C13469B0013445B00BB60C1
:101DF80002E0BB68013BBB60BB68002BF9D17B6884
:101E0800002283F83C20002318461437BD465DF8AD
:101E1800047B70470023014000200140040000209B
:101E280083DE1B4380B485B000AF7860794BFB60DC
:101E3800FB685B6823F44032FB685A60FB685A68A9
:101E48007B685B681A43FB685A607B681B685A6842
:101E58007B681B6822F480725A607B681B6859682B
:101E68007B681B691A027B681B680A435A607B6897
:101E78001B685A687B681B6822F040725A607B684E
:101E88001B6859687B689A687B681B680A435A60B4
:101E98007B681B689A687B681B6822F400629A60FA
:101EA8007B681B6899687B68DA687B681B680A43EB
:101EB8009A607B689B6A584A934222D07B681B6869
:101EC8009A687B681B6822F070629A607B681B685E
:101ED80099687B689A6A7B681B680A439A607B6882
:101EE8001B689A687B681B6822F040529A607B687E
:101EF8001B6899687B68DA6A7B681B680A439A6082
:101F08000FE07B681B689A687B681B6822F0706228
:101F18009A607B681B689A687B681B6822F040524D
:101F28009A607B681B689A687B681B6822F00202CB
:101F38009A607B681B6899687B681B7E5A007B687F
:101F48001B680A439A607B6893F82030002B1BD0EB
:101F58007B681B685A687B681B6842F400625A6099
:101F68007B681B685A687B681B6822F460425A6069
:101F78007B681B6859687B685B6A013B5A037B680E
:101F88001B680A435A6007E07B681B685A687B68CD
:101F98001B6822F400625A607B681B68DA6A7B68F7
:101FA8001B6822F47002DA627B681B68D96A7B6856
:101FB800DB69013B1A057B681B680A43DA627B68A8
:101FC8001B689A687B681B6822F400729A607B68B9
:101FD8001B6899687B6893F830305A027B681B68E5
:101FE8000A439A607B681B689A687B681B6822F4BE
:101FF80080629A607B681B6899687B685B699A0253
:102008007B681B680A439A6000BF1437BD465DF8B9
:10201800047B7047002301400100000F80B584B0A5
:1020280000AF78607B689B6BFB60FB681B6C03F000
:102038005003002B3CD1FB681B6C43F40072FB6817
:102048001A64FB681B689B6803F04053002B2BD174
:10205800FB681B7E002B27D1FB681B68DB6A03F437
:102068007003002B06D0FB681B689B6803F4806331
:10207800002B19D1FB681B685A68FB681B6822F0A3
:1020880020025A60FB681B6C23F48072FB681A6498
:10209800FB681B6C03F48053002B05D1FB681B6C99
:1020A80043F00102FB681A64F868FEF7CBFA0EE009
:1020B800FB681B6C03F01003002B03D0F868FFF7D4
:1020C80085FD04E0FB689B6BDB6C7868984700BF74
:1020D8001037BD4680BD80B584B000AF78607B689E
:1020E8009B6BFB60F868FEF7C3FA00BF1037BD466C
:1020F80080BD80B584B000AF78607B689B6BFB6067
:10210800FB6840221A64FB685B6C43F00402FB68BE
:102118005A64F868FFF75AFD00BF1037BD4680BD06
:1021280080B483B000AF786000BF0C37BD465DF85F
:10213800047B704780B485B000AF78607B6803F09B
:102148000703FB600C4BDB68BB60BA684FF6FF0304
:102158001340BB60FB681A02BB68134343F0BF63BC
:1021680043F40033BB60044ABB68D36000BF143734
:10217800BD465DF8047B704700ED00E080B400AF19
:10218800044BDB681B0A03F007031846BD465DF8DD
:10219800047B704700ED00E080B483B000AF0346D5
:1021A800FB7197F90730002B0BDBFB7903F01F025B
:1021B800074997F907305B09012000FA02F241F854
:1021C800232000BF0C37BD465DF8047B704700BF75
:1021D80000E100E080B483B000AF03463960FB71D2
:1021E80097F90730002B0ADB3B68DAB20C4997F9FC
:1021F80007301201D2B20B4483F800230AE03B688F
:10220800DAB20849FB7903F00F03043B1201D2B29A
:102218000B441A7600BF0C37BD465DF8047B704747
:1022280000E100E000ED00E080B489B000AFF860A4
:10223800B9607A60FB6803F00703FB61FB69C3F1CF
:102248000703042B28BF0423BB61FB690433062B57
:1022580002D9FB69033B00E000237B614FF0FF32AA
:10226800BB6902FA03F3DA43BB681A407B699A40F8
:102278004FF0FF317B6901FA03F3D9437B680B40C8
:10228800134318462437BD465DF8047B70470000A9
:1022980080B582B000AF78607B68013BB3F1807F86
:1022A80001D301230FE00A4A7B68013B53600F21E9
:1022B8004FF0FF30FFF78EFF054B00229A60044B6A
:1022C80007221A60002318460837BD4680BD00BFA4
:1022D80010E000E080B582B000AF78607868FFF762
:1022E80029FF00BF0837BD4680BD80B586B000AF66
:1022F8000346B9607A60FB7300237B61FFF73EFFFA
:1023080078617A68B9687869FFF78EFF024697F9AD
:102318000F3011461846FFF75DFF00BF1837BD465E
:1023280080BD80B582B000AF0346FB7197F90730D6
:102338001846FFF731FF00BF0837BD4680BD80B59E
:1023480082B000AF78607868FFF7A2FF03461846AE
:102358000837BD4680BD000080B586B000AF786004
:1023680000237B61FFF794F938617B68002B01D16A
:10237800012399E07B68022283F835207B680022DC
:1023880083F834207B681B681A687B681B6822F016
:1023980001021A600FE0FFF77BF902463B69D31A86
:1023A800052B08D97B6820225A657B68032283F8AD
:1023B8003520032378E07B681B681B6803F0010362
:1023C800002BE8D17B681B681B687B617A69384BF6
:1023D80013407B617B685A687B689B681A437B68FB
:1023E800DB681A437B681B691A437B685B691A437D
:1023F8007B689B691A437B68DB691A437B681B6AA5
:1024080013437A6913437B617B685B6A042B07D1AA
:102418007B68DA6A7B681B6B13437A6913437B61B9
:102428007B681B687A691A607B681B685B697B61DB
:102438007B6923F007037B617B685B6A7A691343D6
:102448007B617B685B6A042B17D17B689B6A7A691E
:1024580013437B617B68DB6A002B0ED0786800F041
:1024680091FA0346002B08D07B6840225A657B68A6
:10247800012283F83520012316E07B681B687A69FE
:102488005A61786800F048FA0346FB607B68DB6DA8
:102498003F229A40FB689A607B6800225A657B68F5
:1024A800012283F83520002318461837BD4680BD21
:1024B8003F8010F080B586B000AFF860B9607A60F0
:1024C8003B600023FB75FB689B6D3B61FB6893F8E1
:1024D8003430012B01D1022340E0FB68012283F84C
:1024E8003420FB6893F83530DBB2012B2FD1FB6821
:1024F800022283F83520FB6800225A653B687A6817
:10250800B968F86800F0DAF9FB68DB6D3F229A4099
:102518003B699A60FB681B681A68FB681B6842F095
:1025280016021A60FB681B6C002B07D0FB681B683F
:102538001A68FB681B6842F008021A60FB681B688F
:102548001A68FB681B6842F001021A6005E0FB6824
:10255800002283F834200223FB75FB7D18461837C8
:10256800BD4680BD80B483B000AF78607B6893F8C7
:102578003530DBB2022B04D07B6880225A650123F8
:102588000CE07B68052283F835207B681B681A6895
:102598007B681B6822F001021A60002318460C377A
:1025A800BD465DF8047B704780B586B000AF7860A3
:1025B8000023BB608E4B1B688E4AA2FB03239B0A39
:1025C8007B617B689B6D3B613B691B68FB607B683B
:1025D800DB6D08229A40FB681340002B1AD07B68F9
:1025E8001B681B6803F00403002B13D07B681B686F
:1025F8001A687B681B6822F004021A607B68DB6D2E
:1026080008229A403B699A607B685B6D43F001023F
:102618007B685A657B68DB6D01229A40FB68134032
:10262800002B12D07B681B685B6903F08003002BCA
:102638000BD07B68DB6D01229A403B699A607B680E
:102648005B6D43F002027B685A657B68DB6D042290
:102658009A40FB681340002B12D07B681B681B68EC
:1026680003F00203002B0BD07B68DB6D04229A4039
:102678003B699A607B685B6D43F004027B685A652E
:102688007B68DB6D10229A40FB681340002B43D017
:102698007B681B681B6803F00803002B3CD07B6831
:1026A800DB6D10229A403B699A607B681B681B6847
:1026B80003F48023002B18D07B681B681B6803F485
:1026C8000023002B08D17B681B6C002B24D07B686F
:1026D8001B6C786898471FE07B689B6C002B1BD0AD
:1026E8007B689B6C7868984716E07B681B681B685A
:1026F80003F48073002B07D17B681B681A687B681A
:102708001B6822F008021A607B681B6C002B03D040
:102718007B681B6C786898477B68DB6D20229A4041
:10272800FB681340002B00F08F807B681B681B68D8
:1027380003F01003002B00F087807B68DB6D2022FC
:102748009A403B699A607B6893F83530DBB2052B79
:1027580036D17B681B681A687B681B6822F01602F2
:102768001A607B681B685A697B681B6822F08002C4
:102778005A617B681B6C002B03D17B689B6C002B18
:1027880007D07B681B681A687B681B6822F0080200
:102798001A607B68DB6D3F229A403B699A607B68D0
:1027A800012283F835207B68002283F834207B6877
:1027B8001B6D002B7ED07B681B6D7868984779E08D
:1027C8007B681B681B6803F48023002B1DD07B6883
:1027D8001B681B6803F40023002B0DD17B685B6C1E
:1027E800002B31D07B685B6C786898472CE000BF81
:1027F80004000020B5814E1B7B68DB6B002B23D0C7
:102808007B68DB6B786898471EE07B681B681B68F1
:1028180003F48073002B0FD17B681B681A687B68F0
:102828001B6822F010021A607B68012283F83520A9
:102838007B68002283F834207B68DB6B002B03D095
:102848007B68DB6B786898477B685B6D002B32D0C0
:102858007B685B6D03F00103002B22D07B680522A7
:1028680083F835207B681B681A687B681B6822F030
:1028780001021A60BB680133BB607A699A4207D3C8
:102888007B681B681B6803F00103002BF2D100E092
:1028980000BF7B68012283F835207B68002283F81B
:1028A80034207B68DB6C002B05D07B68DB6C786898
:1028B800984700E000BF1837BD4680BD80B485B09A
:1028C80000AFF860B9607A603B60FB681B681A6803
:1028D800FB681B6822F480221A60FB681B683A6850
:1028E8005A60FB689B68402B08D1FB681B687A68B4
:1028F8009A60FB681B68BA68DA6007E0FB681B68C7
:10290800BA689A60FB681B687A68DA6000BF143797
:10291800BD465DF8047B704780B485B000AF786031
:102928007B681B68DBB2103B144AA2FB03231B091C
:10293800FB60134AFB6813441B781A467B68DA6508
:10294800FB68032B09D97B681B6823F47F7323F08A
:1029580003031A1D7B689A6507E07B681B6823F4EC
:102968007F7323F003037A6893657B689B6D184631
:102978001437BD465DF8047B704700BFABAAAAAA0E
:102988003852000880B485B000AF78600023FB732C
:102998007B689B6ABB607B689B69002B1FD1BB6807
:1029A800032B56D801A252F823F000BFC52900080E
:1029B800D7290008C52900085B2A00087B68DB6A5C
:1029C80003F08073002B46D00123FB7343E07B6840
:1029D800DB6AB3F1C07F40D10123FB733DE07B6824
:1029E8009B69B3F5005F21D1BB68032B37D801A2DF
:1029F80052F823F00D2A0008132A00080D2A0008AF
:102A0800252A00080123FB7330E07B68DB6A03F0AA
:102A18008073002B25D00123FB7322E07B68DB6ADF
:102A2800B3F1C07F1FD10123FB731CE0BB68022BED
:102A380003D9BB68032B03D018E00123FB7315E00F
:102A48007B68DB6A03F08073002B0ED00123FB73D5
:102A58000BE000BF0AE000BF08E000BF06E000BFCF
:102A680004E000BF02E000BF00E000BFFB7B1846A7
:102A78001437BD465DF8047B704700BF80B489B049
:102A880000AF7860396000237B6100233B6100233D
:102A9800BB610023FB616BE10122FB6902FA03F3CE
:102AA8007B613B681B687A6913403B613A697B69C3
:102AB8009A4240F05A813B685B6803F00303012B9C
:102AC80005D03B685B6803F00303022B30D17B68B9
:102AD8009B68BB61FB695B00032202FA03F3DB43DB
:102AE800BA691340BB613B68DA68FB695B0002FAAC
:102AF80003F3BA691343BB617B68BA699A607B6860
:102B08005B68BB610122FB6902FA03F3DB43BA6924
:102B18001340BB613B685B681B0903F00102FB695A
:102B280002FA03F3BA691343BB617B68BA695A6056
:102B38003B685B6803F00303032B17D07B68DB68F3
:102B4800BB61FB695B00032202FA03F3DB43BA694A
:102B58001340BB613B689A68FB695B0002FA03F3A8
:102B6800BA691343BB617B68BA69DA603B685B6822
:102B780003F00303022B23D1FB69DA087B680832D0
:102B880053F82230BB61FB6903F007039B000F2257
:102B980002FA03F3DB43BA691340BB613B681A6965
:102BA800FB6903F007039B0002FA03F3BA691343B6
:102BB800BB61FB69DA087B680832B96943F82210FF
:102BC8007B681B68BB61FB695B00032202FA03F3A5
:102BD800DB43BA691340BB613B685B6803F00302DF
:102BE800FB695B0002FA03F3BA691343BB617B68B4
:102BF800BA691A603B685B6803F44033002B00F045
:102C0800B4800023FB60604B5B6C5F4A43F48043F5
:102C180053645D4B5B6C03F48043FB60FB685B4A69
:102C2800FB699B08023352F82330BB61FB6903F050
:102C380003039B000F2202FA03F3DB43BA69134034
:102C4800BB617B68524A93422BD07B68514A9342BE
:102C580025D07B68504A93421FD07B684F4A9342E5
:102C680019D07B684E4A934213D07B684D4A9342F1
:102C78000DD07B684C4A934207D07B684B4A9342FD
:102C880001D107230EE008230CE006230AE0052300
:102C980008E0042306E0032304E0022302E0012302
:102CA80000E00023FA6902F0030292009340BA6937
:102CB8001343BB613549FB699B080233BA6941F884
:102CC80023203B4B9B68BB613B69DB43BA691340DC
:102CD800BB613B685B6803F48013002B03D0BA69BF
:102CE8003B691343BB61324ABB699360304BDB6875
:102CF800BB613B69DB43BA691340BB613B685B68F6
:102D080003F40013002B03D0BA693B691343BB617A
:102D1800274ABB69D360264B5B68BB613B69DB43D1
:102D2800BA691340BB613B685B6803F40033002B4E
:102D380003D0BA693B691343BB611D4ABB69536041
:102D48001B4B1B68BB613B69DB43BA691340BB6122
:102D58003B685B6803F48033002B03D0BA693B6996
:102D68001343BB61124ABB691360FB690133FB6102
:102D7800FB690F2B7FF690AE00BF00BF2437BD461E
:102D88005DF8047B704700BF0038024000380140FE
:102D9800000002400004024000080240000C02400B
:102DA800001002400014024000180240001C0240BB
:102DB800003C014080B582B000AF0346FB80084B61
:102DC8005A69FB881340002B06D0054AFB885361DB
:102DD800FB881846FDF76AFE00BF0837BD4680BD70
:102DE800003C014080B586B000AF78607B68002B5E
:102DF80001D1012367E27B681B6803F00103002B04
:102E080075D0884B9B6803F00C03042B0CD0854BC2
:102E18009B6803F00C03082B12D1824B5B6803F408
:102E28008003B3F5800F0BD17E4B1B6803F400338E
:102E3800002B5BD07B685B68002B57D1012342E2F3
:102E48007B685B68B3F5803F06D1764B1B68754A93
:102E580043F4803313601DE07B685B68B3F5A02FF3
:102E68000CD1704B1B686F4A43F4802313606D4B81
:102E78001B686C4A43F4803313600BE0694B1B6892
:102E8800684A23F480331360664B1B68654A23F451
:102E9800802313607B685B68002B13D0FEF7F8FB78
:102EA800386108E0FEF7F4FB02463B69D31A642B4D
:102EB80001D9032307E25B4B1B6803F40033002BA3
:102EC800F0D014E0FEF7E4FB386108E0FEF7E0FB21
:102ED80002463B69D31A642B01D90323F3E1514B12
:102EE8001B6803F40033002BF0D100E000BF7B68BF
:102EF8001B6803F00203002B63D04A4B9B6803F066
:102F08000C03002B0BD0474B9B6803F00C03082BDA
:102F18001CD1444B5B6803F48003002B16D1414B52
:102F28001B6803F00203002B05D07B68DB68012BCC
:102F380001D00123C7E13B4B1B6823F0F8027B68F3
:102F48001B69DB00374913430B603AE07B68DB6899
:102F5800002B20D0344B01221A60FEF799FB386110
:102F680008E0FEF795FB02463B69D31A022B01D90C
:102F78000323A8E12B4B1B6803F00203002BF0D0BE
:102F8800284B1B6823F0F8027B681B69DB00254986
:102F980013430B6015E0244B00221A60FEF778FB00
:102FA800386108E0FEF774FB02463B69D31A022B2E
:102FB80001D9032387E11B4B1B6803F00203002B95
:102FC800F0D17B681B6803F00803002B36D07B68C0
:102FD8005B69002B16D0154B01221A60FEF758FBCF
:102FE800386108E0FEF754FB02463B69D31A022B0E
:102FF80001D9032367E10B4B5B6F03F00203002B3E
:10300800F0D01BE0094B00221A60FEF741FB386143
:103018000EE0FEF73DFB02463B69D31A022B07D9A7
:10302800032350E10038024000004742800E474227
:10303800884B5B6F03F00203002BEAD17B681B68A7
:1030480003F00403002B00F097800023FB75814BED
:103058001B6C03F08053002B0FD10023BB607D4B0A
:103068001B6C7C4A43F0805313647A4B1B6C03F04F
:103078008053BB60BB680123FB75774B1B6803F467
:103088008073002B18D1744B1B68734A43F4807308
:103098001360FEF7FDFA386108E0FEF7F9FA024618
:1030A8003B69D31A022B01D903230CE16A4B1B6835
:1030B80003F48073002BF0D07B689B68012B06D14A
:1030C800644B1B6F634A43F0010313671CE07B6882
:1030D8009B68052B0CD15F4B1B6F5E4A43F00403C2
:1030E80013675C4B1B6F5B4A43F0010313670BE0EC
:1030F800584B1B6F574A23F001031367554B1B6F3F
:10310800544A23F0040313677B689B68002B15D08F
:10311800FEF7BEFA38610AE0FEF7BAFA02463B69E2
:10312800D31A41F28832934201D90323CBE0494BA9
:103138001B6F03F00203002BEED014E0FEF7A8FA91
:1031480038610AE0FEF7A4FA02463B69D31A41F255
:103158008832934201D90323B5E03E4B1B6F03F03D
:103168000203002BEED1FB7D012B05D1394B1B6CE3
:10317800384A23F0805313647B689B69002B00F066
:10318800A180344B9B6803F00C03082B5CD07B6850
:103198009B69022B41D1314B00221A60FEF778FA65
:1031A800386108E0FEF774FA02463B69D31A022B2D
:1031B80001D9032387E0274B1B6803F00073002B1A
:1031C800F0D17B68DA697B681B6A1A437B685B6AA3
:1031D8009B011A437B689B6A5B08013B1B041A43EB
:1031E8007B68DB6A1B061B4913434B601B4B0122A0
:1031F8001A60FEF74DFA386108E0FEF749FA024610
:103208003B69D31A022B01D903235CE0114B1B68DD
:1032180003F00073002BF0D054E0104B00221A602A
:10322800FEF736FA386108E0FEF732FA02463B69E3
:10323800D31A022B01D9032345E0064B1B6803F080
:103248000073002BF0D13DE07B689B69012B07D10F
:10325800012338E000380240007000406000474217
:103268001B4B5B68FB607B689B69012B28D0FB6864
:1032780003F480027B68DB699A4221D1FB6803F082
:103288003F027B681B6A9A421AD1FA6847F6C073F4
:1032980013407A68526A9201934211D1FB6803F491
:1032A80040327B689B6A5B08013B1B049A4207D14A
:1032B800FB6803F070627B68DB6A1B069A4201D0E8
:1032C800012300E0002318461837BD4680BD00BF23
:1032D8000038024080B584B000AF786039607B6800
:1032E800002B01D10123CCE0684B1B6803F00703D6
:1032F8003A689A420CD9654B3A68D2B21A70634B55
:103308001B6803F007033A689A4201D00123B8E02A
:103318007B681B6803F00203002B20D07B681B68C6
:1033280003F00403002B05D0594B9B68584A43F41B
:10333800E05393607B681B6803F00803002B05D0FB
:10334800534B9B68524A43F460439360504B9B68CD
:1033580023F0F0027B689B684D4913438B607B68C0
:103368001B6803F00103002B44D07B685B68012BCA
:1033780007D1474B1B6803F40033002B19D10123F5
:103388007FE07B685B68022B03D07B685B68032B5C
:1033980007D13F4B1B6803F00073002B09D10123B1
:1033A8006FE03B4B1B6803F00203002B01D10123A4
:1033B80067E0374B9B6823F003027B685B683449FE
:1033C80013438B60FEF764F9F8600AE0FEF760F9D2
:1033D8000246FB68D31A41F28832934201D903238B
:1033E8004FE02B4B9B6803F00C027B685B689B00EB
:1033F8009A42EBD1254B1B6803F007033A689A42BF
:103408000CD2224B3A68D2B21A70204B1B6803F0D8
:1034180007033A689A4201D0012332E07B681B68AF
:1034280003F00403002B08D0194B9B6823F4E052E7
:103438007B68DB68164913438B607B681B6803F065
:103448000803002B09D0124B9B6823F460427B6869
:103458001B69DB000E4913438B6000F021F802461C
:103468000B4B9B681B0903F00F030A49CB5C22FA3C
:1034780003F3094A1360094B1B681846FEF7C4F8A2
:10348800002318461037BD4680BD00BF003C0240EF
:1034980000380240205200080400002008000020E4
:1034A8002DE9B04F90B000AF00237B630023FB638E
:1034B80000233B630023BB63594B9B6803F00C0359
:1034C800082B0DD0082B00F2A180002B02D0042B72
:1034D80003D09BE0534BBB639BE0534BBB6398E02B
:1034E8004F4B5B6803F03F037B634D4B5B6803F412
:1034F8008003002B28D04A4B5B689B0900223B6263
:103508007A623B6AC3F308000021474B03FB01F2D0
:10351800002300FB03F31344434AA0FB0212FA62A0
:103528000A46BA62FA6A1344FB627B6B0022BB61EB
:10353800FA61D7E90623D7E90A01FCF741FE0246FA
:103548000B461346FB6353E0354B5B689B0900222F
:103558003B617A613B69C3F3080A4FF0000B52469E
:103568005B464FF000004FF00001590141EAD2617B
:10357800500102460B46B2EB0A0863EB0B094FF009
:1035880000024FF000034FEA891343EA98634FEAB9
:103598008812B2EB080463EB09054FF000024FF004
:1035A8000003EB0043EA5473E20014461D4614EB93
:1035B8000A033B6045EB0B037B604FF000024FF0C2
:1035C8000003D7E9004529468B02214643EA915377
:1035D80021468A02104619467B6B0022BB60FA60BE
:1035E800D7E90223FCF7ECFD02460B461346FB63C2
:1035F8000B4B5B681B0C03F0030301335B003B635D
:10360800FA6B3B6BB2FBF3F3BB6302E0054BBB63A6
:1036180000BFBB6B18464037BD46BDE8B08F00BF42
:10362800003802400024F40040787D0180B400AFE7
:10363800034B1B681846BD465DF8047B704700BF06
:103648000400002080B500AFFFF7F0FF0246054BED
:103658009B689B0A03F007030349CB5C22FA03F338
:10366800184680BD003802403052000880B500AFCF
:10367800FFF7DCFF0246054B9B685B0B03F0070373
:103688000349CB5C22FA03F3184680BD0038024098
:103698003052000880B582B000AF78607B68002B9C
:1036A80001D1012341E07B6893F83D30DBB2002B68
:1036B80006D17B68002283F83C207868FDF70AFE73
:1036C8007B68022283F83D207B681A687B68043394
:1036D8001946104600F0A6FE7B68012283F84620B2
:1036E8007B68012283F83E207B68012283F83F2013
:1036F8007B68012283F840207B68012283F84120FF
:103708007B68012283F842207B68012283F84320EA
:103718007B68012283F844207B68012283F84520D6
:103728007B68012283F83D20002318460837BD46F0
:1037380080BD80B582B000AF78607B68002B01D176
:10374800012341E07B6893F83D30DBB2002B06D1C2
:103758007B68002283F83C20786800F039F87B68A1
:10376800022283F83D207B681A687B680433194677
:10377800104600F057FE7B68012283F846207B68DC
:10378800012283F83E207B68012283F83F207B6872
:10379800012283F840207B68012283F841207B685E
:1037A800012283F842207B68012283F843207B684A
:1037B800012283F844207B68012283F845207B6836
:1037C800012283F83D20002318460837BD4680BDF6
:1037D80080B483B000AF786000BF0C37BD465DF899
:1037E800047B704780B586B000AFF860B9607A6036
:1037F8007B800023FB75BB68002B09D1FB6893F81D
:103808003E30DBB2022B0CBF01230023DBB222E0E7
:10381800BB68042B09D1FB6893F83F30DBB2022B5D
:103828000CBF01230023DBB215E0BB68082B09D1CC
:10383800FB6893F84030DBB2022B0CBF0123002356
:10384800DBB208E0FB6893F84130DBB2022B0CBF17
:1038580001230023DBB2002B01D0022371E1BB68F6
:10386800002B09D1FB6893F83E30DBB2012B0CBF6B
:1038780001230023DBB222E0BB68042B09D1FB68DB
:1038880093F83F30DBB2012B0CBF01230023DBB2DE
:1038980015E0BB68082B09D1FB6893F84030DBB210
:1038A800012B0CBF01230023DBB208E0FB6893F86F
:1038B8004130DBB2012B0CBF01230023DBB2002B0C
:1038C80024D07B68002B02D07B88002B01D10123F8
:1038D80037E1BB68002B04D1FB68022283F83E2045
:1038E80016E0BB68042B04D1FB68022283F83F2052
:1038F8000EE0BB68082B04D1FB68022283F8402045
:1039080006E0FB68022283F8412001E0012318E168
:10391800BB680C2B00F2AE8001A252F823F000BF66
:103928005D3900087D3A00087D3A00087D3A0008B4
:10393800A53900087D3A00087D3A00087D3A00085C
:10394800ED3900087D3A00087D3A00087D3A000804
:10395800353A0008FB685B6A7C4ADA63FB685B6A95
:103968007B4A1A64FB685B6A7A4ADA64FB68586ABD
:103978007968FB681B6834331A467B88FEF79AFD22
:103988000346002B01D00123DBE0FB681B68DA68E3
:10399800FB681B6842F40072DA606EE0FB689B6AA1
:1039A8006A4ADA63FB689B6A694A1A64FB689B6A1D
:1039B800684ADA64FB68986A7968FB681B68383378
:1039C8001A467B88FEF776FD0346002B01D00123BB
:1039D800B7E0FB681B68DA68FB681B6842F4806222
:1039E800DA604AE0FB68DB6A584ADA63FB68DB6A3C
:1039F800574A1A64FB68DB6A564ADA64FB68D86A75
:103A08007968FB681B683C331A467B88FEF752FDD1
:103A18000346002B01D0012393E0FB681B68DA689A
:103A2800FB681B6842F40062DA6026E0FB681B6BE7
:103A3800464ADA63FB681B6B454A1A64FB681B6BD2
:103A4800444ADA64FB68186B7968FB681B68403382
:103A58001A467B88FEF72EFD0346002B01D0012372
:103A68006FE0FB681B68DA68FB681B6842F48052E9
:103A7800DA6002E00123FB7500BFFB7D002B5FD1FC
:103A8800FB681B680122B968184600F0C1FFFB6893
:103A98001B68314A934204D0FB681B682F4A934243
:103AA80001D1012300E00023002B07D0FB681B682D
:103AB8005A6CFB681B6842F400425A64FB681B6836
:103AC800254A934222D0FB681B68B3F1804F1DD072
:103AD800FB681B68224A934218D0FB681B68214A7E
:103AE800934213D0FB681B681F4A93420ED0FB68B1
:103AF8001B681A4A934209D0FB681B681B4A934209
:103B080004D0FB681B681A4A934211D1FB681B68F2
:103B18009B6803F007033B613B69062B10D0FB68E9
:103B28001B681A68FB681B6842F001021A6007E00C
:103B3800FB681B681A68FB681B6842F001021A6080
:103B4800FB7D18461837BD4680BD00BF1D430008E1
:103B5800C54300088B4200080000014000040140F2
:103B68000004004000080040000C004000400140F4
:103B78000018004080B584B000AF78603960002339
:103B8800FB733B680C2B55D801A252F823F000BFF9
:103B9800CD3B00083D3C00083D3C00083D3C00088A
:103BA800E93B00083D3C00083D3C00083D3C00085E
:103BB800053C00083D3C00083D3C00083D3C000831
:103BC800213C00087B681B68DA687B681B6822F464
:103BD8000072DA607B685B6A1846FEF7C3FC2CE06B
:103BE8007B681B68DA687B681B6822F48062DA608D
:103BF8007B689B6A1846FEF7B5FC1EE07B681B686D
:103C0800DA687B681B6822F40062DA607B68DB6A2A
:103C18001846FEF7A7FC10E07B681B68DA687B682B
:103C28001B6822F48052DA607B681B6B1846FEF72B
:103C380099FC02E00123FB7300BFFB7B002B61D1E1
:103C48007B681B6800223968184600F0E1FE7B6833
:103C58001B682F4A934204D07B681B682D4A934205
:103C680001D1012300E00023002B17D07B681B68DB
:103C78001A6A41F211131340002B0FD17B681B689D
:103C88001A6A40F244431340002B07D17B681B6833
:103C98005A6C7B681B6822F400425A647B681B6874
:103CA8001A6A41F211131340002B0FD17B681B686D
:103CB8001A6A40F244431340002B07D17B681B6803
:103CC8001A687B681B6822F001021A603B68002BA7
:103CD80004D17B68012283F83E2013E03B68042B63
:103CE80004D17B68012283F83F200BE03B68082B56
:103CF80004D17B68012283F8402003E07B6801221D
:103D080083F84120FB7B18461037BD4680BD00BFB5
:103D1800000001400004014080B584B000AF786025
:103D28007B681B68DB68FB607B681B681B69BB6082
:103D3800BB6803F00203002B20D0FB6803F00203EA
:103D4800002B1BD07B681B686FF002021A617B682E
:103D580001221A777B681B689B6903F00303002B19
:103D680003D0786800F065FA05E0786800F057FA43
:103D78007868FCF7CBFE7B6800221A77BB6803F0F3
:103D88000403002B20D0FB6803F00403002B1BD096
:103D98007B681B686FF004021A617B6802221A773D
:103DA8007B681B689B6903F44073002B03D0786819
:103DB80000F03FFA05E0786800F031FA7868FCF71F
:103DC800A5FE7B6800221A77BB6803F00803002B66
:103DD80020D0FB6803F00803002B1BD07B681B680E
:103DE8006FF008021A617B6804221A777B681B68E7
:103DF800DB6903F00303002B03D0786800F019FA9D
:103E080005E0786800F00BFA7868FCF77FFE7B68BD
:103E180000221A77BB6803F01003002B20D0FB6840
:103E280003F01003002B1BD07B681B686FF0100297
:103E38001A617B6808221A777B681B68DB6903F4C0
:103E48004073002B03D0786800F0F3F905E0786838
:103E580000F0E5F97868FCF759FE7B6800221A77CC
:103E6800BB6803F00103002B0CD0FB6803F00103CF
:103E7800002B07D07B681B686FF001021A61786815
:103E880000F0C3F9BB6803F08003002B0CD0FB687B
:103E980003F08003002B07D07B681B686FF080025B
:103EA8001A61786800F0B2FEBB6803F04003002B8B
:103EB8000CD0FB6803F04003002B07D07B681B681D
:103EC8006FF040021A61786800F0C7F9BB6803F028
:103ED8002003002B0CD0FB6803F02003002B07D035
:103EE8007B681B686FF020021A61786800F084FE16
:103EF80000BF1037BD4680BD80B586B000AFF86002
:103F0800B9607A600023FB75FB6893F83C30012B9D
:103F180001D10223AEE0FB68012283F83C207B68D4
:103F28000C2B00F29F8001A252F823F0693F000891
:103F38006D4000086D4000086D400008A93F00086A
:103F48006D4000086D4000086D400008EB3F000818
:103F58006D4000086D4000086D4000082B400008C7
:103F6800FB681B68B968184600F008FBFB681B680B
:103F78009A69FB681B6842F008029A61FB681B6833
:103F88009A69FB681B6822F004029A61FB681B6847
:103F98009969BB681A69FB681B680A439A6164E0FF
:103FA800FB681B68B968184600F058FBFB681B687B
:103FB8009A69FB681B6842F400629A61FB681B6897
:103FC8009A69FB681B6822F480629A61FB681B6827
:103FD8009969BB681B691A02FB681B680A439A61E6
:103FE80043E0FB681B68B968184600F0ADFBFB6846
:103FF8001B68DA69FB681B6842F00802DA61FB6833
:104008001B68DA69FB681B6822F00402DA61FB6846
:104018001B68D969BB681A69FB681B680A43DA61BF
:1040280023E0FB681B68B968184600F001FCFB68D0
:104038001B68DA69FB681B6842F40062DA61FB6896
:104048001B68DA69FB681B6822F48062DA61FB6826
:104058001B68D969BB681B691A02FB681B680A439D
:10406800DA6102E00123FB7500BFFB68002283F8D8
:104078003C20FB7D18461837BD4680BD80B584B00E
:1040880000AF786039600023FB737B6893F83C309D
:10409800012B01D10223B4E07B68012283F83C2084
:1040A8007B68022283F83D207B681B689B68BB60A5
:1040B800BB6823F07703BB60BB6823F47F43BB6016
:1040C8007B681B68BA689A603B681B68B3F5005F39
:1040D8003ED0B3F5005F00F28780B3F5805F00F053
:1040E8008680B3F5805F7FD8702B1AD0702B7BD871
:1040F800602B50D0602B77D8502B3CD0502B73D8E6
:10410800402B58D0402B6FD8302B64D0302B6BD835
:10411800202B60D0202B67D8002B5CD0102B5AD0D6
:1041280062E07B6818683B6899683B685A683B6836
:10413800DB6800F04DFC7B681B689B68BB60BB6854
:1041480043F07703BB607B681B68BA689A604FE0EE
:104158007B6818683B6899683B685A683B68DB6805
:1041680000F036FC7B681B689A687B681B6842F421
:1041780080429A603CE07B6818683B6859683B68F5
:10418800DB681A4600F0AAFB7B681B6850211846BA
:1041980000F003FC2CE07B6818683B6859683B68B2
:1041A800DB681A4600F0C9FB7B681B68602118466B
:1041B80000F0F3FB1CE07B6818683B6859683B68B3
:1041C800DB681A4600F08AFB7B681B6840211846AA
:1041D80000F0E3FB0CE07B681A683B681B68194633
:1041E800104600F0DAFB03E00123FB7300E000BF98
:1041F8007B68012283F83D207B68002283F83C20FD
:10420800FB7B18461037BD4680BD80B483B000AF35
:10421800786000BF0C37BD465DF8047B704780B4FA
:1042280083B000AF786000BF0C37BD465DF8047BF3
:10423800704780B483B000AF786000BF0C37BD46CC
:104248005DF8047B704780B483B000AF786000BF2E
:104258000C37BD465DF8047B704780B483B000AF6F
:10426800786000BF0C37BD465DF8047B704780B4AA
:1042780083B000AF786000BF0C37BD465DF8047BA3
:10428800704780B584B000AF78607B689B6BFB603B
:10429800FB685B6A7A689A4207D1FB6801221A7741
:1042A800FB68012283F83E202AE0FB689B6A7A6853
:1042B8009A4207D1FB6802221A77FB68012283F829
:1042C8003F201DE0FB68DB6A7A689A4207D1FB68E9
:1042D80004221A77FB68012283F8402010E0FB686B
:1042E8001B6B7A689A4207D1FB6808221A77FB6829
:1042F800012283F8412003E0FB68012283F83D2076
:10430800F868FFF7B4FFFB6800221A7700BF103780
:10431800BD4680BD80B584B000AF78607B689B6B7C
:10432800FB60FB685B6A7A689A420BD1FB680122E2
:104338001A777B68DB69002B36D1FB68012283F88A
:104348003E2031E0FB689B6A7A689A420BD1FB6891
:1043580002221A777B68DB69002B25D1FB680122D2
:1043680083F83F2020E0FB68DB6A7A689A420BD129
:10437800FB6804221A777B68DB69002B14D1FB6881
:10438800012283F840200FE0FB681B6B7A689A4291
:104398000AD1FB6808221A777B68DB69002B03D1F6
:1043A800FB68012283F84120F868FCF7AFFBFB6843
:1043B80000221A7700BF1037BD4680BD80B584B093
:1043C80000AF78607B689B6BFB60FB685B6A7A6810
:1043D8009A4203D1FB6801221A7719E0FB689B6AAD
:1043E8007A689A4203D1FB6802221A7710E0FB68C8
:1043F800DB6A7A689A4203D1FB6804221A7707E0DD
:10440800FB681B6B7A689A4202D1FB6808221A770C
:10441800F868FFF718FFFB6800221A7700BF10370B
:10442800BD4680BD80B485B000AF786039607B68D8
:104438001B68FB607B68464A934213D07B68B3F1E4
:10444800804F0FD07B68434A93420BD07B68424A27
:10445800934207D07B68414A934203D07B68404A25
:10446800934208D1FB6823F07003FB603B685B68EC
:10447800FA681343FB607B68354A93422BD07B680C
:10448800B3F1804F27D07B68324A934223D07B68B0
:10449800314A93421FD07B68304A93421BD07B68D5
:1044A8002F4A934217D07B682E4A934213D07B68D9
:1044B8002D4A93420FD07B682C4A93420BD07B68DD
:1044C8002B4A934207D07B682A4A934203D07B68E1
:1044D800294A934208D1FB6823F44073FB603B6888
:1044E800DB68FA681343FB60FB6823F080023B68D3
:1044F8005B691343FB607B68FA681A603B689A68DB
:104508007B68DA623B681A687B689A627B68104A43
:10451800934203D07B68124A934203D13B681A69DD
:104528007B681A637B6801225A617B681B6903F008
:104538000103012B05D17B681B6923F001027B680D
:104548001A6100BF1437BD465DF8047B704700BF91
:10455800000001400004004000080040000C00403A
:10456800000401400040014000440140004801406F
:1045780000180040001C00400020004080B487B0B4
:1045880000AF786039607B681B6A7B617B681B6A57
:1045980023F001027B681A627B685B683B617B6879
:1045A8009B69FB60FB6823F07003FB60FB6823F0EA
:1045B8000303FB603B681B68FA681343FB607B6975
:1045C80023F002037B613B689B687A6913437B6134
:1045D8007B68204A934203D07B681F4A93420CD1E0
:1045E8007B6923F008037B613B68DB687A691343C6
:1045F8007B617B6923F004037B617B68154A9342E6
:1046080003D07B68144A934211D13B6923F4807329
:104618003B613B6923F400733B613B685B693A6922
:1046280013433B613B689B693A6913433B617B6871
:104638003A695A607B68FA689A613B685A687B688D
:104648005A637B687A691A6200BF1C37BD465DF8F9
:10465800047B7047000001400004014080B487B02B
:1046680000AF786039607B681B6A7B617B681B6A76
:1046780023F010027B681A627B685B683B617B6889
:104688009B69FB60FB6823F4E043FB60FB6823F451
:104698004073FB603B681B681B02FA681343FB60AE
:1046A8007B6923F020037B613B689B681B017A6967
:1046B80013437B617B68224A934203D07B68214A7B
:1046C80093420DD17B6923F080037B613B68DB68F3
:1046D8001B017A6913437B617B6923F040037B618B
:1046E8007B68174A934203D07B68164A934213D1DA
:1046F8003B6923F480633B613B6923F400633B61BE
:104708003B685B699B003A6913433B613B689B6963
:104718009B003A6913433B617B683A695A607B683E
:10472800FA689A613B685A687B689A637B687A6919
:104738001A6200BF1C37BD465DF8047B704700BF96
:10474800000001400004014080B487B000AF7860E9
:1047580039607B681B6A7B617B681B6A23F4807203
:104768007B681A627B685B683B617B68DB69FB601E
:10477800FB6823F07003FB60FB6823F00303FB6016
:104788003B681B68FA681343FB607B6923F400737A
:104798007B613B689B681B027A6913437B617B687A
:1047A800214A934203D07B68204A93420DD17B690A
:1047B80023F400637B613B68DB681B027A6913435F
:1047C8007B617B6923F480637B617B68164A934233
:1047D80003D07B68154A934213D13B6923F4805375
:1047E8003B613B6923F400533B613B685B691B01F8
:1047F8003A6913433B613B689B691B013A69134360
:104808003B617B683A695A607B68FA68DA613B68A1
:104818005A687B68DA637B687A691A6200BF1C375A
:10482800BD465DF8047B704700000140000401406C
:1048380080B487B000AF786039607B681B6A3B61E1
:104848007B681B6A23F480527B681A627B685B680A
:104858007B617B68DB69FB60FB6823F4E043FB60FA
:10486800FB6823F44073FB603B681B681B02FA6813
:104878001343FB603B6923F400533B613B689B682F
:104888001B033A6913433B617B68124A934203D086
:104898007B68114A934209D17B6923F480437B6189
:1048A8003B685B699B017A6913437B617B687A6922
:1048B8005A607B68FA68DA613B685A687B681A64F0
:1048C8007B683A691A6200BF1C37BD465DF8047BF5
:1048D800704700BF000001400004014080B487B069
:1048E80000AFF860B9607A60FB681B6A7B61FB689F
:1048F8001B6A23F00102FB681A62FB689B693B6133
:104908003B6923F0F0033B617B681B013A69134361
:104918003B617B6923F00A037B617A69BB681343B7
:104928007B61FB683A699A61FB687A691A6200BF21
:104938001C37BD465DF8047B704780B487B000AF74
:10494800F860B9607A60FB681B6A7B61FB681B6A68
:1049580023F01002FB681A62FB689B693B613B69A4
:1049680023F470433B617B681B033A6913433B6143
:104978007B6923F0A0037B61BB681B017A69134341
:104988007B61FB683A699A61FB687A691A6200BFC1
:104998001C37BD465DF8047B704780B485B000AF16
:1049A800786039607B689B68FB60FB6823F0700364
:1049B800FB603A68FB68134343F00703FB607B68BE
:1049C800FA689A6000BF1437BD465DF8047B7047EB
:1049D80080B487B000AFF860B9607A603B60FB686C
:1049E8009B687B617B6923F47F437B613B681A0288
:1049F8007B681A43BB6813437A6913437B61FB687E
:104A08007A699A6000BF1C37BD465DF8047B704721
:104A180080B487B000AFF860B9607A60BB6803F013
:104A28001F03012202FA03F37B61FB681A6A7B69A0
:104A3800DB431A40FB681A62FB681A6ABB6803F01A
:104A48001F03796801FA03F31A43FB681A6200BF6F
:104A58001C37BD465DF8047B7047000080B485B004
:104A680000AF786039607B6893F83C30012B01D146
:104A780002235AE07B68012283F83C207B680222EB
:104A880083F83D207B681B685B68FB607B681B685C
:104A98009B68BB60FB6823F07003FB603B681B6886
:104AA800FA681343FB607B681B68FA685A607B6886
:104AB8001B68214A934222D07B681B68B3F1804F60
:104AC8001DD07B681B681D4A934218D07B681B6801
:104AD8001B4A934213D07B681B681A4A93420ED034
:104AE8007B681B68184A934209D07B681B68174A81
:104AF800934204D07B681B68154A93420CD1BB686B
:104B080023F08003BB603B685B68BA681343BB60F3
:104B18007B681B68BA689A607B68012283F83D202D
:104B28007B68002283F83C20002318461437BD46D2
:104B38005DF8047B704700BF00000140000400409E
:104B480000080040000C0040000401400040014003
:104B58000018004080B485B000AF78603960002349
:104B6800FB607B6893F83C30012B01D102233DE0C8
:104B78007B68012283F83C20FB6823F0FF023B6836
:104B8800DB681343FB60FB6823F440723B689B6857
:104B98001343FB60FB6823F480623B685B68134344
:104BA800FB60FB6823F400623B681B681343FB60EF
:104BB800FB6823F480523B681B691343FB60FB6866
:104BC80023F400523B685B691343FB60FB6823F4E2
:104BD80080423B68DB691343FB607B681B68FA68AB
:104BE8005A647B68002283F83C2000231846143757
:104BF800BD465DF8047B704780B483B000AF786031
:104C080000BF0C37BD465DF8047B704780B483B0A5
:104C180000AF786000BF0C37BD465DF8047B704775
:104C280080B582B000AF78607B68002B01D101238A
:104C380042E07B6893F84130DBB2002B06D17B68F9
:104C4800002283F840207868FCF7DAFB7B6824228E
:104C580083F841207B681B68DA687B681B6822F44C
:104C68000052DA60786800F02BF87B681B681A69D4
:104C78007B681B6822F490421A617B681B685A693A
:104C88007B681B6822F02A025A617B681B68DA6815
:104C98007B681B6842F40052DA607B6800225A6421
:104CA8007B68202283F841207B68202283F84220F9
:104CB8007B6800225A63002318460837BD4680BD2A
:104CC8002DE9B04FC0B000AFC7F8F400D7F8F43002
:104CD8001B681B6923F44050D7F8F430D968D7F81B
:104CE800F4301A6840EA01031361D7F8F4309A687F
:104CF800D7F8F4301B691A43D7F8F4305B691A43C4
:104D0800D7F8F430DB691343C7F8F830D7F8F43034
:104D18001B68DB6823F4164121F00C01D7F8F43046
:104D28001A68D7F8F8300B43D360D7F8F4301B680B
:104D38005B6923F44070D7F8F4309969D7F8F430F8
:104D48001A6840EA01035361D7F8F4301A688F4BA8
:104D58009A4205D0D7F8F4301A688D4B9A4204D19C
:104D6800FEF784FCC7F8FC0003E0FEF76BFCC7F80D
:104D7800FC00D7F8F430DB69B3F5004F40F00C8144
:104D8800D7F8FC300022C7F8E830C7F8EC20D7E99C
:104D98003A4522462B469118B9655B41FB65D7E930
:104DA8001623214612EB0108294643EB01094FF06F
:104DB80000024FF000034FEAC90343EA58734FEA71
:104DC800C80290469946234618EB0303C7F8E0301B
:104DD8002B4649EB0303C7F8E430D7F8F4305B6897
:104DE8000022C7F8D830C7F8DC20D7E936120B46BE
:104DF800DB183B65134642EB03037B65D7E91423B5
:104E0800D7E93801FBF7DCF902460B46614BA3FBF7
:104E180002235B091C01D7F8FC300022C7F8D03008
:104E2800C7F8D420D7E9348942464B469118B9646B
:104E38005B41FB64D7E91223414612EB010A49465C
:104E480043EB010B4FF000024FF000034FEACB0396
:104E580043EA5A734FEACA0292469B4643461AEB04
:104E68000303C7F8C8304B464BEB0303C7F8CC30F5
:104E7800D7F8F4305B680022C7F8C030C7F8C42000
:104E8800D7E930120B46DB183B64134642EB0303A9
:104E98007B64D7E91023D7E93201FBF791F9024681
:104EA8000B4611463B4BA3FB01235B09642202FB23
:104EB80003F3CB1ADB0003F13202364BA3FB0223C8
:104EC8005B095B0003F4F8731C44D7F8FC3000223C
:104ED800C7F8B830C7F8BC20D7E92E8942464B46F8
:104EE8009118B9635B41FB63D7E90E23414651181A
:104EF800396349464B417B634FF000024FF0000392
:104F0800D7E90CAB5946CB00514643EA5173514699
:104F1800CA0010461946034642469B18C7F8B030E7
:104F28004B460A4642EB0303C7F8B430D7F8F430CF
:104F38005B680022C7F8A830C7F8AC20D7E92A1266
:104F48000B46DB18BB62134642EB0303FB62D7E94F
:104F58000A23D7E92C01FBF733F902460B460D4B20
:104F6800A3FB02135B09642101FB03F3D31ADB00E3
:104F78003233084AA2FB03235B0903F00702D7F880
:104F8800F4301B6822449A6006E100BF001001401B
:104F9800001401401F85EB51D7F8FC300022C7F8F8
:104FA800A030C7F8A420D7E9288942464B46911873
:104FB80039625B417B62D7E9082341465418494668
:104FC80043EB01054FF000024FF00003EB0043EA0A
:104FD8005473E20014461D464346E318C7F8983058
:104FE8004B4645EB0303C7F89C30D7F8F4305B68B1
:104FF8000022C7F89030C7F894204FF000024FF015
:105008000003D7E9244529468B00214643EA9173DA
:1050180021468A00D7E92601FBF7D2F802460B465B
:10502800604BA3FB02235B091C01D7F8FC3000226C
:10503800C7F88830C7F88C20D7E9228942464B4602
:105048009118B9615B41FB61D7E9062341465118C4
:10505800396149464B417B614FF000024FF0000334
:10506800D7E904AB5946CB00514643EA5173514640
:10507800CA0010461946034642469B18C7F88030B6
:105088004B460A4642EB0303C7F88430D7F8F4309E
:105098005B680022BB67FA674FF000024FF000031D
:1050A800D7E91E8949468B00414643EA9173414638
:1050B8008A00D7E92001FBF783F802460B46114620
:1050C800384BA3FB01235B09642202FB03F3CB1AD1
:1050D8001B013233334AA2FB03235B0903F0F003BD
:1050E8001C44D7F8FC3000223B677A67D7E91C8953
:1050F80042464B469118B9605B41FB60D7E90223F1
:1051080041465118396049464B417B604FF00002D7
:105118004FF00003D7E900AB5946CB00514643EAAC
:1051280051735146CA0010461946034642469B1819
:10513800BB664B460A4642EB0303FB66D7F8F430DE
:105148005B6800223B667A664FF000024FF000036E
:10515800D7E9188949468B00414643EA917341468D
:105168008A00D7E91A01FBF72BF802460B460D4BCC
:10517800A3FB02135B09642101FB03F3D31A1B0190
:105188003233084AA2FB03235B0903F00F02D7F866
:10519800F4301B6822449A6000BF07F58077BD464B
:1051A800BDE8B08F1F85EB5102440346934200D1FE
:1051B800704703F8011BF9E770B50D4D0D4C641BE2
:1051C800A4100026A64209D10B4D0C4C00F018F88B
:1051D800641BA4100026A64205D170BD55F8043BF7
:1051E80098470136EEE755F8043B98470136F2E751
:1051F8004852000848520008485200084C5200081B
:10520800F8B500BFF8BC08BC9E467047F8B500BFAB
:08521800F8BC08BC9E4670477B
:105220000000000000000000010203040607080956
:10523000000000000102030400061016000610160C
:08524000B8AFFF7F0100000080
:04524800AD010008AC
:04524C0089010008CC
:10525000010000000024F400100000000100000024
:040000050800157961
:00000001FF
